:100000000C942A000C9434000C9434000C943400AA
:100010000C9434000C9434000C9434000C94340090
:100020000C9434000C9434000C9434000C94340080
:100030000C9434000C9434000C9434000C94340070
:100040000C9434000C9434000C9434000C94340060
:100050000C94340011241FBECFE5D8E0DEBFCDBF25
:100060000E9436000C9464000C9400008FEF8ABB51
:1000700040E050E0A1E0B0E068EC70E02BB3CD01CF
:10008000042E02C0880F991F0A94E2F7982F282B9C
:100090002BBB28E833E1FB013197F1F721503040C9
:1000A000D1F78BB3909598239BBB88E893E1FB0134
:1000B0003197F1F70197D9F74F5F5F4F48305105FE
:0C00C000ECF240E050E0DACFF894FFCF03
:00000001FF
